S01D00005A303030303030337630325F3350534D5F415046572E7372656373
S31501010000E8A2012091DB02012DDC02012DDC0201B6
S315010100102DDC02012DDC02012DDC020100000000B4
S315010100200000000000000000000000009DDD02014B
S315010100302DDC02010000000015DE020151DE020184
S315010100402DDC0201E5F6020109A60201315C02017C
S31501010050A16001012DDC02012DDC0201000000007D
S315010100607D51020100000000000000002957020134
S3150101007099570201000000002DDC02012DDC02016D
S315010100802DDC02012DDC0201000000002DDC020144
S315010100902DDC02012DDC0201000000002DDC020134
S315010100A02DDC02012DDC02012DDC02012DDC020118
S315010100B02DDC02012DDC02012DDC020145B5020117
S315010100C02DDC02012DDC0201A9D502012DDC020183
S315010100D02DDC02012DDC0201754802012DDC020134
S315010100E02DDC02012DDC020110B5054C237833B953
S315010100F0044B13B10448AFF300800123237010BDF3
S31501010100F008002000000000488D03010C4B43B1AB
S315010101100C480D4910B5AFF300800C48036823B9AB
S3150101012010BD0A48036833B97047094B002BF7D054
S31501010130BDE810401847064B002BF5D0184700BF04
S3150101014000000000488D0301F4080020488D0301D9
S31501010150000000004160704783690B4214BF012012
S3150101016000207047C16070474900B2FBF1F2043AC1
S31501010170FF2A4FF0000308D95208FF2A03F10103B0
S315010101800BD9072BF8D14FF4E0231102D2B289B270
S315010101901A430A430261002070471B0403F4E0235A
S315010101A0F3E700BF70B54FF0FF3383628023026A24
S315010101B003600D46042308212022066B01600260BB
S315010101C003606968094B9942044606D901206B7A95
S315010101D0012B04BF4023236070BD2A68044B984755
S315010101E0A0F10100B0FA80F04009F0E7801A06009B
S315010101F069010101CB68002B4CD0F0B400268C6853
S3150101020046604A680D7C120202F440722D0442F4E2
S31501010210805205F4FE052A434260C6604A681ABB4C
S315010102201546012BC5602DD0012202600026026A06
S31501010230D50543F698214FF0020711D44D1E61B33E
S31501010240012B23D0920707D5026B2270013B04F1E2
S31501010250010426D043F69825026A2946D505EDD52E
S3150101026005231846F0BC7047012A0D78D9DD4E7871
S31501010270022A46EA0525D4D08A78012B42EA0525C8
S31501010280C560D1D1032202601E46D0E706B90760D7
S315010102900126D7E701231846704709231846F0BC02
S315010102A0704743F6982201E0541CF6D0016AC9074A
S315010102B002F1FF32F8D5026AF0BC1846704700BF59
S315010102C00346C868002845D070B400268C685E6074
S315010102D00A7C4D6812042D0202F4FE0205F44075F2
S315010102E02A435A60DE604A68BAB91546DD601A6A60
S315010102F0D1050FD452071CD41A6AD60543F69721A4
S3150101030008D4002931D0550713D41A6AD60501F14B
S31501010310FF31F6D5052070BC7047012A0D78E5DD60
S315010103204E78022A46EA0525E0D08A7842EA052571
S31501010330DCE714F8012B5A630138D8D143F6982228
S3150101034004E04D0708D412F1FF320ED3196ACE0526
S31501010350E0D4F6E70120704702211960196AC9073D
S3150101036002F1FF32D7D4541CF8D1092070BC704771
S315010103702DE9F041264D4268002129802B8804464A
S315010103809BB2D2F8BC005A1CC15492B22A802B8866
S315010103906268218FD2F8BC009BB25A1C090AC1546A
S315010103A092B22A802B886268208FD2F8BC109BB248
S315010103B041F2AC72C85404F13A0601339BB2A25818
S315010103C02B803046904763682F88D3F8BC00228F73
S315010103D0104B314610FA87F098472B88218F6068B8
S315010103E00D4AD0F8BC7011FA83F39BB22B802E888B
S315010103F0B6B2731C9BB2F81C2B809047B855636843
S315010104002A88A3F8C0206068044BBDE8F04118476B
S31501010410580900203D0A0301F56B01017D630101C4
S31501010420036B416B028F0B44934202D94068294BFE
S3150101043018472DE9F041284D4268002129802B8872
S3150101044004469BB2D2F8BC005A1CC15492B22A800E
S315010104502B886268616BD2F8BC009BB25A1C090AEF
S31501010460C15492B22A802B886268606BD2F8BC10A3
S315010104709BB241F2AC72C85401339BB2A2582B8094
S3150101048004F13A0090476368216B2E88D3F8BC00CA
S31501010490626B124B3A31214410FA86F098472B8848
S315010104A0A18E60680E4AD0F8BC7011FA83F39BB233
S315010104B02B802E88B6B2731C9BB2F81C2B809047F9
S315010104C0B85563682A88A3F8C0206068054BBDE862
S315010104D0F0411847A56401015A0900203D0A0301AB
S315010104E0F56B01017D630101038F426B9A4202D0D3
S315010104F040680B4B184710B54268044641F2B07388
S315010105009068E3580530984720B16068054BBDE80E
S31501010510104018476068044BBDE81040184700BFFA
S31501010520A56401014564010105650101036B416B87
S31501010530028F0B4493421CD870B541F2AC73044649
S3150101054000F13A05C358284698476368206B9968B4
S31501010550626B0C4B3A3008312044984741F2B07333
S315010105602846E358984738B16068074BBDE87040A3
S3150101057018474068054B18476068054BBDE8704050
S31501010580184700BF3D0A030145640101A564010144
S315010105900565010110B50268937B0A3B042B31D82D
S315010105A0934B04461B8882F86031216891481B0AE6
S315010105B081F861312368027883F862212368012277
S315010105C083F8632123680422A3F8F62123689A6834
S315010105D0137AD2F80900112B00F20981DFE813F031
S315010105E00001F900F200E200D200C200BC00B6002F
S315010105F0B000A000900080007A00740063005400EE
S3150101060045002C007A4B7B491B8882F860310468CE
S315010106100978794A1B0A84F86131036883F8621102
S315010106200368022183F8631103680421A3F8F61113
S315010106300068BDE810401047704B984722680028B2
S3150101064036D0002182F8631121686D4B042201F530
S31501010650B2714FF46A70984722686A4B0821A2F871
S31501010660F6112068BDE810401847674B9847226884
S31501010670F0B1002182F863112168614B042201F571
S31501010680B2714FF46470E6E7604B9847226878B11E
S31501010690002182F863112168594B042201F5B271D7
S315010106A04FF46370D7E75A4B984722680028C8D19F
S315010106B0032182F8631122684F4B0421A2F8F61136
S315010106C02068BDE810401847524B98472268002818
S315010106D0EED0CEE7504B984722680028E8D0D7E7FD
S315010106E04E4B984722680028E2D0002182F8631117
S315010106F02168434B042201F5B2714FF46870AAE7F0
S31501010700474B984722680028D2D0002182F863110D
S3150101071021683B4B042201F5B2714FF462709AE7ED
S31501010720404B984722680028C2D0002182F8631104
S315010107302168334B042201F5B2714FF461708AE7E6
S31501010740394B984722680028B2D0CEE7374B9847F4
S3150101075022680028ACD0D8E7354B98472268002893
S31501010760A6D0E2E7334B984722680028A0D00021A2
S3150101077082F863112168224B042201F5B2714FF40B
S31501010780667068E72C4B98472268002890D00021B3
S3150101079082F8631121681A4B042201F5B2714FF4F3
S315010107A0607058E7254B98472268002880D00021C0
S315010107B082F863112168124B042201F5B2714FF4DB
S315010107C05F7048E71E4B9847226800283FF470AFD7
S315010107D0CDE71C4B9847226800283FF469AFD6E75D
S315010107E0194B9847226800283FF462AFDFE710BD35
S315010107F054090020560900206564010189E20101BD
S315010108001175010145640101BDE1010111E1010119
S3150101081019E201016DE10101C1E0010179DE010187
S31501010820B1DD010105DD01010DDE010161DD01011F
S31501010830B5DC010171DA0101A9D90101FDD8010175
S3150101084005DA010159D90101B1D801012DE9F04FAB
S3150101085042688A4E92688A4DB2F805E0894F92F84C
S3150101086007C071684389DFF83C82DFF83C92B9B071
S3150101087004460091012271460920A5F800E087F896
S3150101088000C0C047234694F82A1053F8162FCDF815
S315010108903320D8681A69CDF83F005868CDF843204E
S315010108A08DF84710CDF8370010A903C92A88D3F866
S315010108B008E0CDF83BE08DE80300C2F30A03C2F379
S315010108C0C022ADF830308DF832200CAB0FCBC847C2
S315010108D000285BD0B5F8009040F6670399454FF0C3
S315010108E0000A00F059872FD940F67A03994500F09D
S315010108F09F8751D940F67E03994500F00C8740F256
S31501010900D58040F69603994500F0758440F22D8213
S3150101091040F6C803994500F02D8440F6C90399456F
S3150101092040F0AD8363689A7B182A0BD1564E96F82F
S315010109300080B8F1010F05D19A68B078117A884221
S3150101094001F09685C9223FE0B9F1090F00F0BF8791
S315010109503FD8B9F1050F01F0498000F23F81B9F1A4
S31501010960010F00F0FE82C0F03985B9F1030F40F0A5
S31501010970868363689A7B092A01F01082032283F830
S31501010980602162683978414B0020DCE16068404BA7
S31501010990984739B0BDE8F08FB9F5076F00F0C68405
S315010109A000F2548140F66E03994500F0EA8100F2A6
S315010109B0DB8740F66803994540F0618363689A7B5A
S315010109C00B2A01F01682682283F860216268397860
S315010109D0B7E140F60903994500F0EB8500F29A81EA
S315010109E0B9F10B0F00F0CB82C0F0558440F6060336
S315010109F0994540F0448363689A7B0A2A41F02B802A
S31501010A0000228DF82C201A929B68224A1B7A8DF8B6
S31501010A102C309DF82C1092F824004EF6602303FB2E
S31501010A2001F31A931A99916228B11B4A1B4B1320A0
S31501010A309847B5F800906368397883F860916368DF
S31501010A409DF82C009DF82C50154A4FEA192983F877
S31501010A506191636883F862116168002381F86331EA
S31501010A60616881F86401616881F86531636806210D
S31501010A70A3F8F611606890478BE700BF607101200A
S31501010A80540900205609002030090020656401013E
S31501010A90856401012C6C0120C10302018DBA020199
S31501010AA0456401016199010165B4020140F67C03C6
S31501010AB0994500F0BF8100F2FD85636839789A7B1B
S31501010AC00A2A4FF07B0283F86021626840F039817E
S31501010AD0082082F861016268AC4B82F86211626892
S31501010AE0DFF840B3DFF84083DFF84093A84E0121D8
S31501010AF082F8631162680421A2F8F61160689847C9
S31501010B006268A44BD2F808E012AA9EF808A00892DE
S31501010B10104600211E2298479F4BA04A1B921FFA9D
S31501010B208AF19F4A1A9304919A4608999D4B1E92FE
S31501010B309D4A05911F939D499D4B21929D4A209165
S31501010B4022939D499D4B24929D4A239125939D492B
S31501010B509D4B27929D4A269128939D499D4B2A9209
S31501010B609D4A29912B939D499D4B2D929D4A9E48C4
S31501010B70DFF8BCE22C912E939C499D4B30921AAA27
S31501010B8009941C90059CCDF874E0CDF814B02F9111
S31501010B9031939346CDF81890CDF81C804FF0030898
S31501010BA00498D047069B207081469847B047059B1C
S31501010BB09847B047079B9847B04708F1FF33B9F10A
S31501010BC0000F02D113F0FF08EAD131AB9B4504F1C5
S31501010BD0010400F047875BF804AFDFE7B9F1070FBE
S31501010BE000F0408200F2778263689A7B0A2A7FF4D9
S31501010BF0D0AE9A68167A721ED2B20D2A01F28B8094
S31501010C00012A01F28880012ED3F80412608901F0CC
S31501010C106285784B984762682B8882F860316068F3
S31501010C2039785A4A1B0A80F86131636883F862117F
S31501010C306368002183F86311636883F864616368FB
S31501010C400521A3F8F61160689047A2E640F67803FC
S31501010C50994500F0AE8100F2D68240F671039945BD
S31501010C6040F00D82636839789A7B092A4FF0710247
S31501010C7083F86021626864D1082082F861016268A3
S31501010C805D4B82F862116268002582F863514FF06B
S31501010C90005066689847594B86F864014FF0005039
S31501010CA066689847564B86F86501284666689847EF
S31501010CB0544B86F866014FF0005066689847524BCF
S31501010CC086F867014FF00050666898474F4B86F8E2
S31501010CD068012846666898474D4B86F869014FF0C9
S31501010CE00050666898474B4B86F86A014FF00050F1
S31501010CF066689847484B86F86B01284665689847A8
S31501010D0085F86C016268214B0D21A2F8F611606824
S31501010D1098473EE640F66503994500F09C8100F24D
S31501010D20B28140F66403994540F0A9816368397837
S31501010D309A7B092A4FF0640283F86021626801F007
S31501010D400080364B082082F86101626882F86211DF
S31501010D506268022182F8631162680421A2F8F61120
S31501010D606068984739B0BDE8F08F40F6820399452E
S31501010D7040F0858163689A7B092A00F0F787822210
S31501010D8022E6201D264B984703E600BF4564010173
S31501010D903D600101710B0301411C0201C91D0201E3
S31501010DA03D220201D1230201F92602016525020133
S31501010DB08D280201B52B0201212A0201492D0201C9
S31501010DC065300201DD2E0201ED3102011535020107
S31501010DD081330201A9360201D13902013D380201ED
S31501010DE0313B02010D3E0201511F0201A53C0201E7
S31501010DF0813F02017DA00101B1D8010159D901014A
S31501010E0005DA0101B5DC010161DD01010DDE010139
S31501010E10C1E001016DE1010119E20101656401010F
S31501010E2095050101C1440201F15B0201054D020172
S31501010E30E5200201636839789A7B0A2A4FF07C0220
S31501010E4083F8602162687FF47CAF082082F8610132
S31501010E506268A44B82F862116268DFF808B3DFF8B1
S31501010E600883DFF80893A04E4FF0010182F8631160
S31501010E7062680421A2F8F6116068984762689B4B83
S31501010E80D2F808E012AA5146089210461E229EF88F
S31501010E9008A098479649974B974A1B924FF0010E26
S31501010EA081F822E0954A1A931FFA8AF107911E9257
S31501010EB00899934A04919A46924B93491F93219219
S31501010EC0924B934A209122939249934B2492934AAE
S31501010ED0239125939249934B2792934A26912893DD
S31501010EE09249934B2A92934A29912B939249934B77
S31501010EF02D92934A2C912E9330929248DFF870E20B
S31501010F009149924B09941AAA049C1C90CDF810B0F0
S31501010F10CDF874E02F913193CDF814909346CDF825
S31501010F2018804FF003080798D047059B207081462A
S31501010F309847B047049B9847B047069B9847B047E7
S31501010F4008F1FF33B9F1000F02D113F0FF08EAD11D
S31501010F5031AB9B4504F1010400F0AB855BF804AFAD
S31501010F60DFE76368397883F860919A7B6368092AB8
S31501010F7083F861A1626800F07387754BE6E66368E1
S31501010F80397883F860919A7B6368092A83F861A1AC
S31501010F906268F2D182F862116268524B82F863A1EA
S31501010FA062680421A2F8F61160689847694B98476F
S31501010FB0EFE463689A7B0C2A4FF0780283F860218B
S31501010FC07FF404AD63683A78082183F86111636897
S31501010FD083F862216368012283F86321636804222D
S31501010FE0A3F8F62161688A68567A137A907A43EAF8
S31501010FF006231BB2332B01F0968300F3E485162BEE
S3150101100001F0B58301F31B810B2B01F0688301F319
S315010110101183012B01F0E383062B05D14E4B984732
S31501011020002840F03D8661682B8881F8603160684F
S315010110303978474A1B0A80F86131636883F862117E
S315010110406368032183F8631163680421A3F8F61128
S31501011050606890479DE463689A7B0D2A00F0448796
S315010110606522B1E463689A7B092A00F0118783F846
S3150101107060916368397883F861A162687DE7606888
S31501011080364B984785E463689A7B0A2A4FF06602D4
S3150101109083F860217FF49AAC63683A78082183F872
S315010110A06111636883F8622163689A68157A002D74
S315010110B001F06F80012D41F06480294B98476268E8
S315010110C0084B002182F8631160689847636804221E
S315010110D0A3F8F6215DE463689A7B092A00F08D87FE
S315010110E008224CE4456401013D600101710B0301D4
S315010110F02C6C0120151D02019D1E02011D230201F9
S31501011100D9270201B1240201452602016D290201F5
S31501011110952C0201012B0201292E0201393102010D
S31501011120B12F0201CD320201F5350201613402010D
S31501011130893702018D3A02011D390201013C020181
S31501011140DD3E020131200201613D020161400201E0
S3150101115065640101811B0201C91D0201C564010109
S3150101116021E50101C1440201F15B0201054D0201C3
S31501011170A121020163689A7B182A00F06087002287
S315010111808DF848209DF848103878884AC9B24D1C17
S31501011190EDB28DF848500B449DF84810C82583F8E7
S315010111A06051CBB25D1C6168EDB28DF848501944AE
S315010111B008259DF8483081F860516168DBB25D1CF4
S315010111C00B44E9B28DF8481083F860019DF8483067
S315010111D06168DBB219440220013381F86001DBB297
S315010111E08DF8483063689DF84810A3F8F6116068D8
S315010111F09047FFF7CEBB63689A7B092A00F0CE863A
S315010112009622FFF7E1BB63689A7B0C2A4FF07902BC
S3150101121083F860217FF4DAAB63683A78082183F8B1
S315010112206111636883F862216368012283F863218E
S3150101123063680422A3F8F62161688A68567A137AEB
S31501011240907A43EA06231BB2332B01F0708200F335
S315010112500785162B01F0738201F300800B2B01F038
S31501011260B68201F31D82012B01F05982062B40F052
S3150101127012854F4B984762682B8882F86031606806
S3150101128039784A4A1B0A80F86131636883F8621129
S3150101129063680221D6E663689A7B0F2A40F0D883F8
S315010112A09A683D78177AB1780A2283F860216068D5
S315010112B0002280F86121606880F862516068012925
S315010112C080F8632100F07D876268736882F8643172
S315010112D06268190A82F865116268190C82F8661149
S315010112E062681B0E82F8673107F00303032B01F0D5
S315010112F01180B3786268012B00F05587736882F813
S3150101130068316268190A82F869116268190C82F8F2
S315010113106A1162681B0E82F86B316268254B0C21DA
S31501011320A2F8F61160689847FFF733BB636839780D
S315010113309A7B092A4FF0700283F8602162687FF473
S3150101134000AD082082F8610162681B4B82F86211C7
S31501011350626882F863A165689847184B85F864014C
S3150101136065689847164B85F8650165689847154B79
S3150101137085F8660165689847134B85F867016568C5
S315010113809847124B85F8680165689847104B85F8AF
S315010113906901656898470F4B85F86A016568984741
S315010113A00D4B85F86B0165689847A9E465640101F0
S315010113B09D1E02014564010125DC010155DC010186
S315010113C085DC010131E0010161E0010191E00101E9
S315010113D041E4010171E40101A1E401016268397885
S315010113E0937B092B4FF0000382F86031626882F822
S315010113F061317FF442AE6268DFF8A0A282F8621120
S3150101140062680593012682F863616168DFF8949247
S31501011410DFF894B2DFF894820422A1F8F62160681C
S315010114200492D0477F4880490068804B81F821604A
S3150101143081F8226098477E497C4B08687D4EDFF82A
S3150101144070A298477C498847C047C847D847B047E3
S315010114507A498847C047C847D847B0477849884736
S31501011460C047C847D847B04776498847C047C847A4
S31501011470D847B04774498847C047C847D847B04796
S3150101148072498847C047C847D847B0477049884716
S31501011490C047C847D847B0476E498847C047C8477C
S315010114A0D847B0476C498847C047C847D847B0476E
S315010114B06A498847C047C847D847B04768498847F6
S315010114C0C047C847D847B04766498847C047C84754
S315010114D0D847B04764498847C047C847D847B04746
S315010114E062498847C047C847D847B04760498847D6
S315010114F0C047C847D847B0475E498847C047C8472C
S31501011500D847B0475C498847C047C847D847B0471D
S3150101151060895A498847C847D847B04758498847D3
S31501011520C847D847B047608956498847C047C84721
S31501011530D847B04754498847C047C847D847B047F5
S3150101154052498847C047C847D847B0475049884795
S31501011550C047C847D847B0476068298880F86011F5
S3150101156060683D78059B049A090A80F861116168F2
S3150101157081F86251616881F863316368454CA3F86A
S31501011580F62105E0C847C047B047D847C047B0472D
S315010115909AF80030002BF5D12378002BF2D10322E2
S315010115A08DF868308DF869201A983B4B9847FFF7FB
S315010115B0F0B9636839789A7B0A2A4FF0090283F8F0
S315010115C0602162687FF4BDAB082082F8610162681F
S315010115D0324B82F862116268012182F863116268F5
S315010115E00421A2F8F611606898470F4B93F824304D
S315010115F00BB92B4B984762682B8882F86031616879
S315010116003A781B0A81F86131636883F8622163685C
S31501011610002283F8632163680422A3F8F621FFF708
S31501011620B8B900BFB47201202C6C012059EA02013C
S31501011630507101203D600101999C0101F56402018E
S315010116405D670201756B0201E96D020131750201E6
S31501011650A17C0201C97D02016D7F0201FD810201A9
S3150101166055C3020179BF0201D1B3010161B601017D
S3150101167001BA01016184010155870101E98E010167
S31501011680E1910101A9960101B90602014D0B020180
S31501011690A58A0101EC6E0120F1590101456401019F
S315010116A0FD980201054D0201C1440201F15B0201EE
S315010116B0C86E0120636839789A7B092A4FF07D0249
S315010116C083F8602162687FF43CAB082082F86101EE
S315010116D062689B4B82F862116268012182F863118B
S315010116E062680426A2F8F6616068984762682B88E9
S315010116F082F8603161683A781B0A81F86131636861
S3150101170083F862216368002283F863216368A3F881
S31501011710F661FFF73EB963689A7B092A4FF07E02AB
S3150101172083F860217FF452A963683978844ADFF826
S315010117302082082083F86101636883F86211636876
S31501011740012683F8636163684FF00409A3F8F691F2
S31501011750606890477B4B88F8216088F8226098473A
S31501011760794B9847794B984788F821A088F822A0A8
S3150101177062682B8882F8603161683A781B0A81F8C0
S315010117806131636883F86221636883F863A16368E1
S31501011790A3F8F691FFF7FDB863689A7B112A4FF01A
S315010117A0670283F860217FF411A963683878684A72
S315010117B06849082583F86151636883F862016368A2
S315010117C083F863A163680420A3F8F60163689B6843
S315010117D01B7A536460688068407A43EA0023536444
S315010117E060688068807A43EA004353646068806870
S315010117F0C07A43EA0063536463689B681B7B936405
S3150101180060688068407B43EA00239364606880686E
S31501011810807B43EA0043936460688068C07B43EA46
S315010118200063936488476068454B9847FFF7B1B8F1
S3150101183063689A7B0B2A4FF07A0283F860217FF461
S31501011840C5A863683A78082183F86111636883F84A
S3150101185062216368012183F8631163680421A3F896
S31501011860F61161688B68587A1B7A43EA00231BB229
S315010118702C2B00F0BC8700F32482172B00F0C087C4
S3150101188000F3C1840B2B01F00D8000F36186032B5C
S3150101189000F0CA87062B00F0C387012B00F0E18710
S315010118A07A2381F860316368082183F861116368DD
S315010118B083F862216368022283F863216368042243
S315010118C0A3F8F62160681E4B9847FFF762B8636873
S315010118D0397883F860919A7B63680A2A83F861A152
S315010118E062687FF44AAB82F8621162681A4B82F828
S315010118F063A162680421A2F8F6119847174B75682E
S3150101190007469847606883681B7A990700F1F8844E
S31501011910DA0700F1E1845B07D5D539466089104BB9
S315010119202A46984762680F4B9268167AC6F3C30630
S31501011930984763890095314601221820C047C1E7BE
S315010119404564010119750101E90B0201A159010161
S315010119502C6C012021060201C9D20201B59D0201A9
S31501011960C1C5020161C70201636839789A7B092AF7
S315010119704FF06F0283F8602162687FF4E2A90820C3
S3150101198082F8610162689F4B82F8621162680021E7
S3150101199082F86311656898479B4B85F86401656810
S315010119A098479A4B85F8650165689847984B85F87C
S315010119B0660165689847974B85F867016568984799
S315010119C0954B85F8680165689847944B85F86901D7
S315010119D065689847924B85F86A0165689847914B06
S315010119E085F86B0165689847FFF78AB963689A7B41
S315010119F083F860910C2A63687FF43CAB83F861A19B
S31501011A0063683A7883F8622162689368B3F80910CA
S31501011A10ADF868101B7A072B20D040F27F810B2B82
S31501011A201CD01BD8092B19D018D802221AA947F69E
S31501011A30D2507D4B98476368002283F8632162681F
S31501011A407A4B0421A2F8F61160689847FEF7A1BF07
S31501011A500A22FEF794BF0622FEF7B6BF022382F8D9
S31501011A606331ECE7099C2B886268089D82F8603135
S31501011A7061683A781B0A81F86131636883F86221EA
S31501011A806368002283F863210FCD6768C7F8640193
S31501011A90C7F8681103CDC7F86C21C7F87031C7F8CB
S31501011AA07401C7F8781163681C22A3F8F621FEF7C1
S31501011AB070BFDDF81880DDF810B0DDF814905C4BCD
S31501011AC0099CDFF898A19847C847C047B047D8474E
S31501011AD0C047B047574B9847C847C047B047D84753
S31501011AE0C047B047544B9847C847C047B047D84746
S31501011AF0C047B047514B9847C847C047B047D84739
S31501011B00C047B0474E4B9847C847C047B047D8472B
S31501011B10C047B0474B4B9847C847C047B047D8471E
S31501011B20C047B0476089484B9847C847C047B04747
S31501011B30D847C047B0476089444B9847C847C04713
S31501011B40B047D847C047B04762682B8882F86031F1
S31501011B5061683A78089D1B0A81F86131636883F8E7
S31501011B6062216368002283F863210FCD6768C7F894
S31501011B706401C7F8681103CDC7F86C21C7F8703144
S31501011B80C7F87401C7F878116368314A4FF01C0E22
S31501011B90A3F8F6E1144605E0C847C047B047D84760
S31501011BA0C047B0479AF80030002BF5D12378002BB6
S31501011BB0F2D103228DF82C308DF82D200B98254B6F
S31501011BC09847FEF7E6BE492B00F0C18540F35583E0
S31501011BD040F60302934200F0EA8540F3558540F64B
S31501011BE03502934200F0DF8540F64902934200F047
S31501011BF0D68540F6170293427FF416AA164B9847EB
S31501011C00FFF70EBAF1DA010155DB0101BDDB010175
S31501011C10F9DE010161DF0101C9DF010109E3010109
S31501011C2071E30101D9E3010109750101456401016D
S31501011C30999C010131750201A17C0201C97D020153
S31501011C406D7F020101BA0101E98E0101A996010126
S31501011C50EC6E0120F1590101A53C0201C86E01207A
S31501011C60492B00F0588540F3DB8240F6030293428B
S31501011C7000F03D8540F3F28440F63502934200F0CF
S31501011C809E8540F64902934200F0418540F61702CE
S31501011C90934200F038850846AC4B9847FFF7EBBAFB
S31501011CA062682B8882F8603160683978A84A1B0A14
S31501011CB080F86131636883F8621163680021FFF777
S31501011CC0C1B94A2B00F0978500F389823E2B00F0BA
S31501011CD0A38500F32484352B00F09A853D2B00F072
S31501011CE09385332B7FF4DCAD9A4B984762682B8839
S31501011CF082F8603161683A781B0A81F8613163685B
S31501011D0083F862216368002283F8632163680422F0
S31501011D10A3F8F621D6E50622FEF731BE032B00F024
S31501011D20D4843FF69BAE012B00F0C384022B7FF4D2
S31501011D3095AEFE293FF693AE01221AA944F690000B
S31501011D4077E6082082F861016268814B82F86211A7
S31501011D506268002182F8631162680421A2F8F61112
S31501011D60606898477C4B9847FEF713BE7B4B9847B3
S31501011D7062682B8882F8603165683978744A1B0A72
S31501011D8085F86131636883F862116368002183F81C
S31501011D906311636883F86401FEF751BF704E714A9E
S31501011DA0012386F8213086F8223090476E4B9847F9
S31501011DB06E4B98476E4B9847002286F8212086F88C
S31501011DC0222061682B8881F860316568387860491D
S31501011DD01B0A85F86131636883F86201636883F8D8
S31501011DE0632163680422A3F8F62160688847FEF738
S31501011DF0D0BD9B685A495A7A1E7ADFF89C8146EA18
S31501011E00022636B21FFA86F94FF47A7202FB09F2FB
S31501011E101020CA64C0471120C0471220C047636819
S31501011E202A8883F86021636838784949120A83F858
S31501011E306121636883F862016368002283F8632183
S31501011E40636883F8646162684FEA192382F8653130
S31501011E5063680622A3F8F62160688847FEF799BDF3
S31501011E6082F8621162683A4B82F863A162680425BD
S31501011E70A2F8F651606898473E483F4B98478DF85E
S31501011E8069508DF868901A983C4B9847FEF781BDC9
S31501011E903B4B98473B4B98473B4B98473B4B9847A6
S31501011EA03B4B0646984763682A8883F86021636835
S31501011EB03D782749120A83F86121636883F86251E3
S31501011EC0636883F863A1636883F864616368360AAA
S31501011ED083F86561636883F866016368A3F8F6911F
S31501011EE060688847FEF755BD9A683978107AD67ABF
S31501011EF0557A927A652783F860716368082783F8B2
S31501011F006171636883F862116168114B81F863A19C
S31501011F1061682D0445EA00650420A1F8F6013543FF
S31501011F2045EA02256068984728461A4B98471148A1
S31501011F30114B9847052201238DF868308DF86920E8
S31501011F401A980E4B9847FEF724BD00BF656401013F
S31501011F504564010155C30201D19A0101BD13020173
S31501011F602C6C012031750201A17C0201C97D02019E
S31501011F706D7F0201B7CD370001000020F159010142
S31501011F8091A10101ADA10101814C020155A10101FD
S31501011F9061A10101D1E4010109BB0201BE4BBF4EA1
S31501011FA0984762682B8882F8603162683F783060B1
S31501011FB01B0A82F861316368316883F8627163686B
S31501011FC0326883F863A1606837683368B44D090CD8
S31501011FD080F864116168120E81F86521626882F8E0
S31501011FE0667162681B0A82F8673163680822A3F881
S31501011FF0F6216068A847FEF7CCBCAA4B9847AA4BC5
S31501012000984762682B8882F8603160683978A74AF7
S315010120101B0A80F86131636883F8621163680021E4
S3150101202083F86311606800F5B270904762689C4B52
S315010120301321A2F8F61160689847FEF7AABC4FF082
S3150101204000088DF848809DF8486098683A7890F8BC
S3150101205016E0D0F8099090F815C090F808B0F6B2DC
S315010120608246711CC9B28DF848105AF80D0F1E44EB
S315010120709DF84830DAF804104FF0C80A86F860A1D5
S315010120805FFA83FA0AF10103DBB28DF8483063681E
S31501012090874E53444FF0080A83F860A19DF848A082
S315010120A06368C6F804905FFA8AFA0AF101095FFAD0
S315010120B089F953448DF8489083F860219DF84820A9
S315010120C0636886F820C0D2B213444FF00109013288
S315010120D0D2B283F860918DF8482063689DF848C0B3
S315010120E086F821E006F1080203C286F802B06C4ABD
S315010120F0A3F8F6C1606890476E4B86F8229098471F
S315010121008DF848809DF848102B886268387886F8E2
S315010121102280C9B201EB0905EDB28DF8485011448F
S315010121209DF8482081F86031D2B2616886F8009045
S3150101213002EB0905EDB28DF8485011441A0A9DF8D2
S31501012140483081F86021626886F80180DBB203EBD1
S3150101215009011344CAB28DF8482083F860019DF83C
S3150101216048306268DBB21A444B4482F86081DBB2C3
S315010121708DF8483063689DF84820A3F8F621FEF7EB
S3150101218008BC022283F8632160684B4B9847FEF72E
S315010121909DBF4A4B98476268414B82F8635160681B
S315010121A09847FEF793BF002382F86831626882F887
S315010121B06931626882F86A31626882F86B31FFF7C8
S315010121C0ACB8636883F86421636883F86521636841
S315010121D083F86621636883F86721FFF785B840F6BE
S315010121E00400834200F0628300F3BE814C2B00F0B0
S315010121F02B83C0F2258340F6010083427FF450AB65
S315010122002F4B984772E51B2B00F0ED8200F3948169
S31501012210192B00F03B8300F335832A4B984765E57B
S315010122203D2B00F0AC8200F30F82352B00F0A38227
S31501012230362B7FF430AD244B9847FFF71CB82A2B78
S3150101224000F0798200F3B4811B2B00F07C82292BEB
S315010122507EF4EAAE1D4B9847FEF7E2BE2A2B00F04B
S315010122607E8200F3AF811B2B00F07582292B7FF44F
S3150101227012AD174B9847FEF7FEBF3D2B00F0878243
S3150101228000F3F881352B00F03682362B7EF4CCAE85
S31501012290104B9847FEF7C4BEA5700101180900202D
S315010122A045640101C9A10101814C02016DA101012F
S315010122B030090020819A01016564010179E5010175
S315010122C005040201A17C020139310201F92602014B
S315010122D0D9270201653002012A466089BE4B39467A
S315010122E098476068BD4AD0F80432934200F09A8358
S315010122F0BB4A934200F08E8383681B7AFFF70BBBBF
S315010123006089B84B2A4639469847606883681B7AC3
S31501012310FFF7FEBA6368B4499A68DFF810A3D37A66
S31501012320957A507A127B1B0403EB0523034403EBD5
S3150101233002631AA81B938847249A1B9B13441946C7
S315010123401AA81C93D047A94B1AA898471C9B2199F7
S315010123508DF87C0000228B428DF87D208DF87E2040
S31501012360C0F02181229A9342C0F0118102238DF896
S315010123707E3000278DF86A7072B6BFF35F8F0DF15B
S31501012380680EBEE80F0096F815B0D6F80490984E7F
S31501012390DFF89CC235460FC5BEE80F000FC59EE8A2
S315010123A007004FF0010E8CF80070378085E80700B1
S315010123B08CF800E0BFF35F8F62B603206389CDF825
S315010123C0009072463946C0476368844AD3F804329D
S315010123D0934200F09082824A934200F036837268FA
S315010123E063890092002101220420C04763687B4A68
S315010123F0D3F80432934200F02083794A93422FD0D5
S31501012400BBF1000F40F05B819DF87D30002B00F0A0
S315010124105A81784B62891A730121726899719A609E
S31501012420754A3F215971904748467168734B9847E0
S315010124301AA87168D047BDF874509DF87670029557
S315010124409DF877509DF87F309DF878209DF8791099
S315010124509DF87A008DE8A000694DA847FEF749BFAE
S31501012460726863890092002211461320C047C7E7AB
S315010124701146D2F809A051F80D0FC6F804A04FF084
S31501012480C90A496892F8159092F816C083F860A1B5
S31501012490636886F820904FF0080983F861916368B3
S315010124A03A7883F862216368564A83F863816368DF
S315010124B086F821C04FF00409A3F8F69106F1080E3A
S315010124C0AEE80300606890474F4B98474F4B504920
S315010124D018601A6892B20A601A68120C1A601A68B0
S315010124E00B689A4262682B8882F8603100F0EA81B2
S315010124F061683A781B0A81F86131636883F8622160
S315010125006368032283F863216368A3F8F6910023C4
S315010125103370B370736086F82230FEF73ABA472BEF
S3150101252000F0BC81492B00F0B5813F2B7FF4B8A99E
S31501012530384B9847FFF7DABB2A2B00F07D8100F370
S315010125407781292B7FF4ACA9334B9847FFF7CEBB93
S31501012550152B00F0828100F37C810D2B7FF4A0A95C
S315010125602E4B9847FFF7C2BB40F63500834200F078
S31501012570A58140F64900834200F09C8140F617008F
S3150101258083427FF48DA9264B9847FFF7AFBB239A68
S315010125901344194601221AA81C938DF87D208DF842
S315010125A07E20D0471C9B229A9342FFF4E2AEDDE6E0
S315010125B02B2B00F0D8802C2B7EF436AD194B984786
S315010125C0FEF72EBD2B2B00F08E802C2B7FF463ABF7
S315010125D0154B9847FEF74FBED99A020100400048B4
S315010125E000060E40CD9C020169A3020101D102013F
S315010125F060710120B472012061C702016DC8010138
S31501012600ED5D0101456401013D6C01011C090020DB
S315010126102009002001BA010111AA02015D67020127
S31501012620B9060201B52B0201952C0201BD9E0201DB
S315010126308D0000200D2B00F0A680152B7EF4F4AC45
S31501012640B14B9847FEF7ECBC3E2B00F0BC80472B03
S315010126507FF421ABAD4B9847FEF70DBE4B2B00F036
S315010126609A8040F6010293427FF415ABA84B984735
S31501012670FEF701BE3E2B00F09E80472B7EF4D4ACC3
S31501012680A44B9847FEF7CCBC4B2B00F0A48040F637
S31501012690010293427EF4C8AC9F4B9847FEF7C0BC3A
S315010126A00D2B2CD0152B7FF4F6AA9C4B9847FEF7E0
S315010126B0E2BD02221AA946F68110FFF7BAB9BBF1AA
S315010126C0010F00F0D280964BAAE602221AA946F61C
S315010126D04410FFF7AEB9934B9847FEF79CBA924B5C
S315010126E09847FEF79DBC914B9847FEF7C4BD904BA9
S315010126F09847FEF7C0BD8F4B9847FEF791BC8E4BAD
S315010127009847FEF7B8BD8D4B9847FEF7B4BD8C4B84
S315010127109847FEF7B0BD8B4B9847FEF7ACBD8A4B88
S315010127209847FEF7A8BD894B9847FEF779BC884BB8
S315010127309847FEF7A0BD874B9847FEF771BC864BBC
S315010127409847FEF798BD854B9847FEF769BC844BC0
S315010127509847FEF765BC834B9847FEF78CBD824BC4
S315010127609847FEF788BD814B9847FEF759BC804BC8
S315010127709847FEF755BC7F4B9847FEF77CBD7E4BCC
S315010127809847FEF778BD7D4B9847FEF749BC7C4BD0
S315010127909847FEF745BC7B4B9847FEF76CBD7A4BD4
S315010127A09847FEF73DBC794B9847FEF739BC784B04
S315010127B09847FEF735BC774B9847FEF731BC764B08
S315010127C09847FEF758BD754B9847FEF754BD744BB4
S315010127D09847FEF750BD734B9847FEF721BC724BE4
S315010127E09847FEF71DBC714B9847FFF77FBA704BAF
S315010127F09847FFF77BBA60896E4B9847FFF776BA20
S315010128006D4B9847FFF772BA6C4B9847FFF76EBA53
S315010128106B4B9847FFF76ABA6A4B9847FFF766BA57
S31501012820694B9847FFF762BA684B9847FFF75EBA5B
S31501012830674B9847FFF75ABA664B9847FFF756BA5F
S31501012840654B9847FFF752BA6089644B9847FFF782
S315010128504DBA634B9847FFF749BA624B9847FFF761
S3150101286045BA614B9847FFF741BA9DF87D30012B77
S315010128702B4B3FF4D5AD6189726883F807B01973A3
S315010128809A60CDE5594B9847FFF730BA584B9847AF
S31501012890FFF72CBA574B9847FFF728BA564B98477B
S315010128A0FFF724BA554B9847FFF720BA544B98477F
S315010128B0FFF71CBA534B9847FFF718BA524B984783
S315010128C0FFF714BA6268387850491B0A82F86131F8
S315010128D0636883F862016268002382F86331626882
S315010128E086F82230A2F8F69155208847484B86F89A
S315010128F0018098470BE66389CDF800903A4639463F
S315010129001020C0476BE500BF3D220201F5350201EA
S315010129108D3A020115350201D13902011D23020148
S31501012920B4720120CD9F0101511F0201012B020148
S31501012930013C0201DD2E0201A1210201613D0201DB
S315010129406140020189370201151D0201492D02016A
S31501012950292E02018D280201B124020165250201F8
S31501012960A9360201452602016D290201212A020128
S31501012970D1230201B12F0201CD320201E52002016B
S31501012980ED3102011D390201813F02010D3E0201B4
S31501012990313B020181330201DD3E02016134020153
S315010129A0312002013D380201411C0201FD81020172
S315010129B0F1AF0201E98E010131750201D1B30101C4
S315010129C079BF020161B60101D59D0101999C010100
S315010129D081AE02012DAC0201E1910101A99601012C
S315010129E0E96D0201756B0201E99A01016D7F02012F
S315010129F0C97D02015587010161840101F564020165
S31501012A0085070201A58A01014D0B0201F599010113
S31501012A10819901010022638900951D201146C04754
S31501012A20606869E40022638900951C201146C0474C
S31501012A30606883681B7AFEF76EBF726863890092CC
S31501012A40002211461120C047DAE46389CDF80090CE
S31501012A503A4639461220C047C1E400BF84B02DE988
S31501012A60F04F89B00DF14C0C8CE80E00CC4CCD4EDB
S31501012A702578BDF84E7000223270EDB141F2B47283
S31501012A800123A25C3370B2B142F66873E35C002B99
S31501012A9000F0CC8144F21C73E35C002B00F0CA8187
S31501012AA045F6D0620423A25C337022B109B0BDE8B8
S31501012AB0F04F04B070471D468246BCE80F0041F253
S31501012AC0B47808FB05F504EB050B0BF1080EAEE82E
S31501012AD00F00BCE80F00AEE80F00DFF81493DCF835
S31501012AE00000D9F8043000934FF0010CCEF8000034
S31501012AF06246CBF804A03B4600210720DFF8F4A289
S31501012B0004F805C0D04796F800E0A74A08FB0E4332
S31501012B105968D1F80432934200F09081A34A934255
S31501012B2000F09B8141F2B47505FB0E4E0027AEF80C
S31501012B302C709DF86E308DF81F308B68DFF8B882E6
S31501012B405B7812AA1B02AEF82C30886852F8121F64
S31501012B50CDF80B10D1688078CDF817101169CDF831
S31501012B601B1008A9034311E903008DE80300C3F310
S31501012B700A01ADF80810C3F3C0218DF80A10516896
S31501012B809268CDF81320CDF80F1002AAAEF82C30B9
S31501012B900FCAC047002851D096F8008005FB0845A9
S31501012BA0AB8D322B00F08B8323D94A2B00F07C832A
S31501012BB056D83D2B00F06D8300F29980352B00F03C
S31501012BC0028440F2A981372B00F0EC8380F008835F
S31501012BD0774B984741F2B47303FB084841F2AC7253
S31501012BE07449A8F83800744B48F8021040469847D2
S31501012BF02AE0142B00F0AA835AD8082B00F073831C
S31501012C0040F2FC800C2B00F06D8440F249810F2BC0
S31501012C1000F00084102B40F0FA81684B984741F28D
S31501012C20B47303FB084841F2AC726549A8F8380050
S31501012C30614B48F802104046984705E03378614AEE
S31501012C4005FB034568689047327841F2B47303FB8B
S31501012C5002F30022E25409B0BDE8F04F04B0704717
S31501012C6040F61602934200F0878376D840F60102B8
S31501012C70934200F0558440F23B8140F604029342AF
S31501012C8000F03C8440F60502934240F0E8814E4B48
S31501012C90984741F2B47303FB084841F2AC724B49C0
S31501012CA0A8F83800444B48F8021040469847CBE74C
S31501012CB01B2B00F0568335D8172B00F07F8440F289
S31501012CC00381192B00F0988440F28484404B984784
S31501012CD041F2B47303FB084841F2AC723D49A8F8CD
S31501012CE03800354B48F8021040469847ACE7462B69
S31501012CF000F04D8340F23881482B00F0418440F2C7
S31501012D002D84354B984741F2B47303FB084841F2D0
S31501012D10AC723249A8F83800274B48F802104046F0
S31501012D20984791E7292B00F03D8440F209812B2B2D
S31501012D3000F0028480F0BD81294B984741F2B473BA
S31501012D4003FB084841F2AC722649A8F838001A4B30
S31501012D5048F802104046984776E740F61902934231
S31501012D6000F08C8240F2148140F64802934200F051
S31501012D70358340F64902934240F058821A4B9847EF
S31501012D8041F2B47303FB084841F2AC721749A8F842
S31501012D903800094B48F802104046984754E700BFEE
S31501012DA04C060120260900200040004800060E407D
S31501012DB001C30201CDC0020171030101396B020197
S31501012DC08D6A0201856401014D0A02011D0A020192
S31501012DD0AD810201F57F020171950101158901019B
S31501012DE06DAE0201A9AD0201958D0101A58C01010D
S31501012DF0607101206199010195B20201022B00F076
S31501012E00FE8239D8002B40F0D880BE4B984741F25B
S31501012E10B47303FB084841F2AC72BB49A8F8380008
S31501012E20BA4B48F80210404698470DE702231D4662
S31501012E30337041E603231D4633703DE6D9F804306C
S31501012E400093002211463B461420D04796F800E034
S31501012E5008FB0E48D8F8041064E6D9F8043000934B
S31501012E60002211463B461520D04796F800E008FBA3
S31501012E700E48D8F8041055E6032B40F0DC80A44B2C
S31501012E80984741F2B47303FB084841F2AC72A14978
S31501012E90A8F838009D4B48F8021040469847D3E6FA
S31501012EA00A2B40F075819C4B984741F2B47303FBA1
S31501012EB0084841F2AC729949A8F83800934B48F891
S31501012EC0021040469847BFE6152B40F0DE80944B31
S31501012ED0984741F2B47303FB084841F2AC72914938
S31501012EE0A8F83800894B48F8021040469847ABE6E6
S31501012EF04B2B40F088818C4B984741F2B47303FB0D
S31501012F00084841F2AC728949A8F838007F4B48F864
S31501012F1002104046984797E6332B40F0DE80844BFA
S31501012F20984741F2B47303FB084841F2AC728149F7
S31501012F30A8F83800754B48F802104046984783E6D1
S31501012F401C2B40F039817C4B984741F2B47303FB4A
S31501012F50084841F2AC727949A8F838006B4B48F838
S31501012F600210404698476FE63E2B40F07481744B40
S31501012F70984741F2B47303FB084841F2AC727149B7
S31501012F80A8F83800614B48F80210404698475BE6BD
S31501012F9040F61702934224D16B4B984741F2B47321
S31501012FA003FB084841F2AC726849A8F83800574B4F
S31501012FB048F802104046984746E6012B40F08A81BF
S31501012FC0634B984741F2B47303FB084841F2AC7273
S31501012FD06049A8F838004D4B48F802104046984719
S31501012FE032E640F61802934240F074815A4B9847F3
S31501012FF041F2B47303FB084841F2AC725749A8F890
S315010130003800424B48F80210404698471CE60D2B02
S3150101301040F06081524B984741F2B47303FB084873
S3150101302041F2AC724F49A8F83800384B48F8021002
S315010130304046984708E6062B40F04C814A4B984793
S3150101304041F2B47303FB084841F2AC724749A8F84F
S3150101305038002E4B48F8021040469847F4E540F6F1
S315010130600302934240F03681414B984741F2B473D2
S3150101307003FB084841F2AC723E49A8F83800234BDC
S3150101308048F8021040469847DEE5162B40F02281AA
S31501013090394B984741F2B47303FB084841F2AC72CC
S315010130A03649A8F83800194B48F8021040469847A6
S315010130B0CAE52C2B40F00E81314B984741F2B4738E
S315010130C003FB084841F2AC722E49A8F838000F4BB0
S315010130D048F8021040469847B6E5342B40F0FA808D
S315010130E0294B984741F2B47303FB084841F2AC728C
S315010130F02649A8F83800054B48F80210404698477A
S31501013100A2E500BF91A201012DA5010171030101F2
S31501013110D19D0101919D0101F1640201D164020177
S31501013120E56D0201216D020131950101A1930101B3
S3150101313025BF020171C40201B18B0201118702018E
S31501013140EDB9010195B8010181070201D906020113
S31501013150259C0101C99B010119110201D90E020127
S31501013160716902011D680201C99F0101819F010166
S31501013170E5050201A50502011D700201416F02016A
S3150101318085B20201A9B1020175BF020129BF02017E
S315010131900B2B40F09F80A84B984741F2B47303FB78
S315010131A0084841F2AC72A549A8F83800A44B48F881
S315010131B002104046984747E5282B40F08B80A14BEA
S315010131C0984741F2B47303FB084841F2AC729E4938
S315010131D0A8F838009A4B48F802104046984733E55B
S315010131E03C2B77D1994B984741F2B47303FB0848BD
S315010131F041F2AC729649A8F83800914B48F8021091
S315010132004046984720E54C2B64D1924B984741F2B1
S31501013210B47303FB084841F2AC728F49A8F8380030
S31501013220874B48F80210404698470DE540F63502AE
S3150101323093424FD1894B984741F2B47303FB084836
S3150101324041F2AC728649A8F838007D4B48F8021064
S3150101325040469847F8E43F2B3CD1824B984741F2CF
S31501013260B47303FB084841F2AC727F49A8F83800F0
S31501013270734B48F8021040469847E5E47B4B984763
S3150101328041F2AC727A4928876D4BA9502846984775
S31501013290DAE4784B984741F2AC7277492887684B53
S315010132A0A95028469847CFE4744B984741F2AC722E
S315010132B073492887624BA95028469847C4E4714B44
S315010132C0984741F2AC72704928875D4BA95028464F
S315010132D09847B9E441F2B47303FB08486B4BD8F83C
S315010132E004009847B0E46A68DFF8F481B2F8F63170
S315010132F00433A2F8C0306B68D3F8BC301F706A681A
S31501013300B2F8F631D2F8BC201B0A53706B68D3F8B8
S31501013310BC20B3F8F63193706968D1F8BC00B1F8F5
S31501013320F621033001F5B071C0476B68584AD3F8ED
S31501013330BC80B3F8F61108F10300CF1C9047FFB228
S31501013340544B08F80700686898477DE4524B984743
S3150101335041F2AC7251492887394BA9502846984701
S3150101336072E44F4B984741F2AC724E492887344B70
S31501013370A9502846984767E44B4B984741F2AC72EE
S315010133804A4928872E4BA950284698475CE4484B61
S31501013390984741F2AC7247492887294BA9502846DB
S315010133A0984751E4444B984741F2B47303FB0848EB
S315010133B041F2AC724149A8F83800214B48F8021094
S315010133C04046984740E43E4B984741F2AC723D492D
S315010133D028871B4BA9502846984735E43A4B98470D
S315010133E041F2B47303FB084841F2AC723749A8F8BC
S315010133F03800134B48F802104046984724E4344BF1
S31501013400984741F2AC72334928870D4BA95028469A
S31501013410984719E4304B984741F2B47303FB0848C6
S3150101342041F2AC722D49A8F83800054B48F8021053
S315010134304046984708E400BF11670201716602011F
S31501013440710301010DAA0201F1A90201CDB3010125
S315010134508DB30101219901014D970101D50E02019A
S31501013460950E020125BB0101CDBA010155130201D8
S315010134701D1102015DB6010111B601019D91010105
S31501013480918F01013DBE020111BE0201C564010117
S31501013490F56B01017D630101716B0201416B020152
S315010134A00187020139860201490B0201510A020112
S315010134B05D8401013584010139C50201ADC40201F1
S315010134C0B9C0020139C00201A58D0101F5860101CB
S315010134D0959C0101299C0101696A02018D6902011B
S315010134E03D0A03014D4B984741F2AC724C4928877D
S315010134F04C4BA95028469847FFF7A6BB4A4B98471C
S3150101350041F2B47303FB084841F2AC724749A8F88A
S315010135103800444B48F8021040469847FFF794BBE0
S31501013520434B984741F2AC72424928873D4BA9501A
S3150101353028469847FFF788BB3F4B984741F2B4733A
S3150101354003FB084841F2AC723C49A8F83800354BF7
S3150101355048F8021040469847FFF776BB384B984723
S3150101356041F2B47303FB084841F2AC723549A8F83C
S3150101357038002C4B48F8021040469847FFF764BBC8
S31501013580314B984741F2B47303FB084841F2AC72DF
S315010135902E49A8F83800234B48F8021040469847AF
S315010135A0FFF752BB2A4B984741F2AC72294928874A
S315010135B01C4BA95028469847FFF746BB264B98470F
S315010135C041F2AC7225492887164BA95028469847DE
S315010135D0FFF73ABB224B984741F2B47303FB084804
S315010135E041F2AC721F49A8F838000E4B48F8021097
S315010135F040469847FFF728BB1B4B984741F2B473E6
S3150101360003FB084841F2AC721849A8F83800054B8A
S3150101361048F8021040469847FFF716BB5567020165
S315010136201567020171030101A909020121080201BC
S3150101363021050201D5040201EDAF02017DAF0201AF
S3150101364091860101E9850101AD8D01019586010190
S3150101365029AC02019DAB0201457C02016977020198
S31501013660A17D0201F17C0201C97E0201197E0201DD
S3150101367084B02DE9F04F8FB019AE86E80E00B84C33
S31501013680B84D2778BDF8668000222A70EFB141F264
S31501013690B4720123A25C2B70B2B142F66873E35C8A
S315010136A0002B00F0CB8144F21C73E35C002B00F08C
S315010136B0C98145F6D0620423A25C2B7022B10FB0F9
S315010136C0BDE8F04F04B070471F4684460FCE41F264
S315010136D0B47909FB07F704EB070B0BF1080EAEE80A
S315010136E00F000FCEAEE80F00DFF8B4A23068DAF8AA
S315010136F00430009301263246CBF804C0434600212B
S31501013700CEF80000DFF89CB2E6550720D8472B78A2
S31501013710954809FB03425168D1F80422824200F01F
S3150101372095819248824200F09F8141F2B47808FB6B
S3150101373003434FF0000EA3F82CE09DF886208DF887
S3150101374037208A688A4E527812029A85886880786B
S31501013750C3F830E002439A858868C7783F041F633E
S315010137608868007947EA00271F6388684079C3F8AA
S3150101377034E007431F6388688079000258638F68C4
S3150101378018A997F807E051F8127F4EEA0000C2F333
S315010137900A0EC2F3C0225863ADF820E08B68C868EF
S315010137A08DF822204A68CDF823700F69CDF8337060
S315010137B0CDF82F000EA911E903008DE80300CDF81C
S315010137C02B30CDF8272008AB0FCBB0470746002891
S315010137D04ED02E7808FB0648B8F82C30332B00F072
S315010137E0568523D8152B00F06E8554D80A2B00F087
S315010137F05C8500F20A81022B00F0D88440F24281F5
S31501013800062B00F02B85082B40F0CD8141F2B473D4
S3150101381003FB06467068736B326BB0F8F6111A44F6
S315010138208A4240F2C185534B984728E04A2B00F062
S31501013830E9844ED83E2B00F0D78440F2CE80462B48
S3150101384000F0868440F27881482B00F09F8440F293
S315010138508D84494B984741F2B47303FB064641F205
S31501013860AC7246493087464BB1503046984706E01F
S315010138702B78444A08FB0348D8F8040090472A7874
S3150101388041F2B47303FB02F30022E2540FB0BDE827
S31501013890F04F04B070471C2B00F03E8440F2848047
S315010138A02A2B00F0DF8340F259812C2B00F0F6839D
S315010138B080F05282344B984741F2B47303FB0646BA
S315010138C041F2AC72314930872D4BB15030469847A0
S315010138D0D5E740F61602934200F010841FD940F64F
S315010138E01902934200F0508340F24A8140F64802A0
S315010138F0934200F03A8340F64902934240F0FD8239
S31501013900234B984741F2B47303FB064641F2AC726D
S31501013910204930871A4BB15030469847AFE740F6F8
S315010139200102934200F03D8340F2F48040F6040225
S31501013930934200F0438340F60502934240F0C98267
S31501013940154B984741F2B47303FB064641F2AC723B
S31501013950124930870A4BB150304698478FE700BF6D
S315010139604C060120270900200040004800060E40B0
S3150101397095B20201A5640101719501011589010142
S315010139802104010185640101EDAF02017DAF02014F
S31501013990958D0101A58C01014D0A02011D0A020144
S315010139A06071012061990101182B00F0C38340F276
S315010139B09F801A2B00F0928340F28083B14B984786
S315010139C041F2B47303FB064641F2AC72AE4930874C
S315010139D0AE4BB1503046984751E7362B00F0508334
S315010139E074D93C2B00F0F08340F20381A84B984730
S315010139F041F2B47303FB064641F2AC72A549308725
S31501013A00A24BB1503046984739E70D2B00F0188487
S31501013A104AD9102B00F00484142B40F0FC809E4BF4
S31501013A20984741F2B47303FB064641F2AC729B49D6
S31501013A303087964BB1503046984720E702231F46FF
S31501013A402B7042E603231F462B703EE6DAF804305B
S31501013A5000930022434611461420D8472B7809FBCF
S31501013A600349D9F8041060E6DAF80430009300221C
S31501013A70434611461520D8472B7809FB0349D9F846
S31501013A80041052E6002B40F0D880854B984741F24D
S31501013A90B47303FB064641F2AC72824930877B4B14
S31501013AA0B15030469847EAE60B2B40F043817E4BF5
S31501013AB0984741F2B47303FB064641F2AC727B4966
S31501013AC03087724BB15030469847D8E6342B40F0D7
S31501013AD0C680774B984741F2B47303FB064641F220
S31501013AE0AC7274493087694BB15030469847C6E686
S31501013AF0162B40F02882704B984741F2B47303FBB1
S31501013B00064641F2AC726D493087604BB150304681
S31501013B109847B4E64B2B40F0FB80694B984741F23D
S31501013B20B47303FB064641F2AC7266493087574BC3
S31501013B30B15030469847A2E63F2B40F01F81624BB8
S31501013B40984741F2B47303FB064641F2AC725F49F1
S31501013B5030874E4BB1503046984790E6282B40F0BE
S31501013B60E0815B4B984741F2B47303FB064641F290
S31501013B70AC7258493087454BB150304698477EE67D
S31501013B8040F61702934220D1534B984741F2B47341
S31501013B9003FB064641F2AC72504930873B4BB150AB
S31501013BA0304698476BE6032B40F068834C4B9847A8
S31501013BB041F2B47303FB064641F2AC7249493087BF
S31501013BC0324BB1503046984759E640F618029342B6
S31501013BD040F05483444B984741F2B47303FB0646C4
S31501013BE041F2AC7241493087284BB1503046984772
S31501013BF045E6372B40F042833D4B984741F2B4737A
S31501013C0003FB064641F2AC723A4930871F4BB1506C
S31501013C103046984733E60F2B40F03083364B9847B1
S31501013C2041F2B47303FB064641F2AC723349308764
S31501013C30164BB1503046984721E6012B40F01E83C1
S31501013C402F4B984741F2B47303FB064641F2AC721E
S31501013C502C4930870D4BB150304698470FE6352B2D
S31501013C6040F00C83284B984741F2B47303FB064697
S31501013C7041F2AC7225493087044BB1503046984721
S31501013C80FDE500BF01870201398602012104010117
S31501013C905DB6010111B60101716B0201416B0201B0
S31501013CA091A201012DA501011167020171660201AE
S31501013CB075BF020129BF02011D700201416F020197
S31501013CC031950101A193010125BB0101CDBA010183
S31501013CD00DAA0201F1A9020181070201D906020118
S31501013CE0D19D0101919D010119110201D90E020115
S31501013CF039C50201ADC40201696A02018D69020178
S31501013D00259C0101C99B0101B9C0020139C002010A
S31501013D104C2B40F0B382B14B984741F2B47303FB8C
S31501013D20064641F2AC72AE493087AE4BB1503046D0
S31501013D309847A4E50C2B40F0A182AB4B984741F281
S31501013D40B47303FB064641F2AC72A8493087A54B11
S31501013D50B1503046984792E5322B40F08F82A44B01
S31501013D60984741F2B47303FB064641F2AC72A1498D
S31501013D7030879C4BB1503046984780E5402B40F047
S31501013D807D829D4B984741F2B47303FB06431A6B3F
S31501013D905B6B059202EB030B5845C0F0A28241F61B
S31501013DA08412934200F29D82944B954A1989B0FB84
S31501013DB0F1F01080934ADFF8A88200231380924A1A
S31501013DC0002937D080B2B2F800C0B8F80090069049
S31501013DD0864607969A4646460393049318469046A5
S31501013DE0059A9A420AF1010A06D37245049A98BFC5
S31501013DF03A46049298BF8146069A9B45134406D9D1
S31501013E00F345039A98BF3A46039298BF84461FFA2F
S31501013E108AF0069A81429644E2D8049B4246B0460C
S31501013E20079E002B40F0FC82764B1980039B0BB158
S31501013E30A2F800C0754B1B785B0740F1E58241F2A0
S31501013E40B47303FB064311885B68B8F80000D3F825
S31501013E50BC206F4B6F4F0131091A033289B2984762
S31501013E6041F2B47303FB0646654BB8F800E0306BCB
S31501013E701B887168726B0EFB13033363D1F8BC00A7
S31501013E800333C1180330B8477368634AD3F8BC30AA
S31501013E90002119707168736BD1F8BC101B0A4B7044
S31501013EA07368716BD3F8BC3099707168776BD1F80F
S31501013EB0BC80B9B208F1030090470337574A08F8A5
S31501013EC00700736B71680433A1F8C03070689047BD
S31501013ED0D5E440F60302934240F0D081504B984716
S31501013EE041F2B47303FB064641F2AC724D49308788
S31501013EF03C4BB15030469847C1E440F635029342F6
S31501013F0040F0BC81484B984741F2B47303FB064626
S31501013F1041F2AC7245493087324BB1503046984730
S31501013F20ADE4292B40F0AA81414B984741F2B47384
S31501013F3003FB064641F2AC723E493087294BB1502B
S31501013F40304698479BE4172B40F098813A4B9847A6
S31501013F5041F2B47303FB064641F2AC72374930872D
S31501013F60204BB1503046984789E4354B984741F289
S31501013F70B47303FB064641F2AC7232493087194BE1
S31501013F80B150304698477AE42F4B984741F2AC72CB
S31501013F902E49A8F83800134B48F8021040469847B5
S31501013FA06DE42B4B984741F2AC722A49A8F83800C7
S31501013FB00C4B48F802104046984760E4264B984757
S31501013FC041F2B47303FB064641F2AC7223493087D1
S31501013FD0044BB1503046984751E400BF2199010184
S31501013FE04D9701012104010155670201156702017E
S31501013FF03DBE020111BE020129BB0101B8660120C4
S315010140000E090020240900200C0900204467012023
S31501014010CDC801013D0A0301F56B01017D63010172
S31501014020E5050201A5050201D50E0201950E020162
S3150101403029AC02019DAB0201457C020169770201AE
S31501014040A58D0101F5860101551302011D1102011B
S3150101405021050201D5040201A90902012108020172
S3150101406010090020A34B984741F2AC72A249A8F866
S315010140703800A24B48F8021040469847FFF7FFBBAC
S315010140809F4B984741F2AC729E49A8F838009B4B69
S3150101409048F8021040469847FFF7F1BB9A4B9847FB
S315010140A041F2B47303FB064641F2AC72974930877C
S315010140B0924BB15030469847FFF7E1BB944B984775
S315010140C041F2B47303FB064641F2AC729149308762
S315010140D08A4BB15030469847FFF7D1BB8E4B984773
S315010140E041F2B47303FB064641F2AC728B49308748
S315010140F0824BB15030469847FFF7C1BB884B984771
S3150101410041F2AC728749A8F838007C4B48F8021095
S3150101411040469847FFF7B3BB834B984741F2AC72D0
S315010141208249A8F83800754B48F80210404698476D
S31501014130FFF7A5BB7E4B984741F2AC727D49A8F8C2
S3150101414038006E4B48F8021040469847FFF797BB77
S31501014150794B984741F2AC727849A8F83800674B18
S3150101416048F8021040469847FFF789BB744B9847B8
S3150101417041F2B47303FB064641F2AC7271493087D1
S315010141805E4BB15030469847FFF779BB6E4B984766
S3150101419041F2B47303FB064641F2AC726B493087B7
S315010141A0564BB15030469847FFF769BB684B984764
S315010141B041F2AC726749A8F83800504B48F8021031
S315010141C040469847FFF75BBB634B984741F2B4738F
S315010141D003FB064641F2AC7260493087474BB15049
S315010141E030469847FFF74BBB5D4B984741F2AC729E
S315010141F05C49A8F83800414B48F8021040469847F7
S31501014200FFF73DBB584B984741F2AC725749A8F8A5
S3150101421038003A4B48F8021040469847FFF72FBB42
S31501014220534B984741F2B47303FB064641F2AC7214
S3150101423050493087314BB15030469847FFF71FBB84
S315010142404D4B984741F2AC724C49A8F838002B4BBB
S3150101425048F8021040469847FFF711BB484B98476B
S3150101426041F2B47303FB064641F2AC72454930870C
S31501014270224BB15030469847FFF701BB41F2B47367
S3150101428003FB0646404B70689847FFF7F8BA3F4B68
S31501014290984741F2AC723E49A8F83800174B48F8E5
S315010142A0021040469847FFF7EABA3A4B984741F25E
S315010142B0AC723949A8F83800104B48F8021040464B
S315010142C09847FFF7DCBA354B984741F2AC7234494E
S315010142D0A8F83800094B48F8021040469847FFF7FD
S315010142E0CEBA41F2B47303FB06462E4B706898476A
S315010142F0FFF7C5BA6DAE0201A9AD020121040101A3
S3150101430001C30201CDC0020185B20201A9B10201B7
S31501014310C97E0201197E0201AD810201F57F020109
S31501014320490B0201510A0201B18B020111870201F6
S31501014330A17D0201F17C02015D8401013584010146
S3150101434091860101E9850101AD8D01019586010183
S31501014350959C0101299C0101CDB301018DB3010197
S31501014360EDB9010195B801019D910101918F0101FC
S31501014370396B02018D6A0201716902011D6802012F
S31501014380C99F0101819F0101C564010125BF020187
S3150101439071C40201F1640201D1640201E56D0201F8
S315010143A0216D0201A56401010433A0F8C0307368CF
S315010143B01D4FD3F8BC3000221A707268736BD2F8A4
S315010143C0BC201B0A53707368726BD3F8BC309A70A8
S315010143D07168336BD1F8BC00726B03F5B073194484
S315010143E00330B8477368716BD3F8BC800F4B08F182
S315010143F00300CF1C89B29847FFB20D4B08F807009D
S3150101440070689847FFF73BBA41F2B47303FB064361
S3150101441011885B68B8F80000D3F8BC20054B19E593
S31501014420A8F8009000E500BF3D0A0301F56B010103
S315010144307D63010129CA010184B02DE9F04F89B0DB
S3150101444013AC84E80E00BD4DBD4F2E78BDF84E80EC
S3150101445000223A70EEB141F2B4720123AA5C3B70BB
S31501014460B2B142F66873EB5C002B00F00C8144F2A9
S315010144701C73EB5C002B00F00A8145F6D062042324
S31501014480AA5C3B7022B109B0BDE8F04F04B0704798
S315010144901E4684460FCC41F2B47909FB06F605EBBB
S315010144A0060B0BF1080EAEE80F000FCCAEE80F00BC
S315010144B0DFF8C8A22068DAF8043000930124224605
S315010144C0CBF804C043460021CEF80000DFF8B0B2B4
S315010144D0AC550820D8473B789A4909FB03525068E5
S315010144E0D0F804228A4200F0DD8097498A4200F021
S315010144F0E78041F2B47404FB03534FF0000EA3F8B5
S315010145002CE08268914E5278DFF878C2DFF8789212
S3150101451012029A8581688978C3F834E00A439A853B
S315010145208168C97809025963826892F804E04EEA02
S31501014530010159638068431805305B793370E0479F
S315010145403A78DAF80430009304FB02524346918D1E
S3150101455089F8000001220A20D847327899F80030FB
S315010145609A4211D03B787A4A04FB0354606890471A
S315010145703A7841F2B47303FB02F30022EA5409B01B
S31501014580BDE8F04F04B0704712AB3A7853F8121FE9
S31501014590CDF80B101969DE68CDF81B109DF86E0078
S315010145A05968CDF81760CDF80F109E688DF81F0078
S315010145B008AB13E9030004FB0252CDF81360928D97
S315010145C0644E8DE80300C2F30A03C2F3C022ADF8BB
S315010145D008308DF80A2002AB0FCBB04700285AD01C
S315010145E03E7804FB0654A38D2C2B00F087822BD930
S315010145F04A2B00F0BE8140F28C8040F603029342C1
S3150101460000F01C8140F2048140F60502934200F05C
S31501014610D981C0F0C88140F63502934200F0B481D8
S3150101462040F64902934240F081804B4B984741F253
S31501014630B47303FB065641F2B07248493087484BC1
S31501014640B1503046984793E7172B00F0628245D85F
S315010146500B2B00F0188140F2B080152B00F0CC81B4
S3150101466000F2BB810D2B61D13E4B984741F2B473E8
S3150101467003FB065641F2B0723B493087384BB150C4
S315010146803046984774E702231E463B7001E7032330
S315010146901E463B70FDE63B78344A04FB03546068D1
S315010146A0904765E7DAF80430009300224346162065
S315010146B01146D8473B7809FB0359D9F8040018E795
S315010146C0DAF8043000930022434617201146D847F1
S315010146D03B7809FB0359D9F804000AE71B2B00F0C3
S315010146E0DD8040F281802A2B00F0F28000F2E18028
S315010146F0292B1BD11E4B984741F2B47303FB065676
S3150101470041F2B0721B493087154BB150304698477B
S315010147102EE73D2B00F0088138D9472B00F01E8189
S31501014720492B00F00C813E2B00F0EF8041F2B4736E
S3150101473003FB0656104B7068984719E74C06012092
S31501014740280900200040004800060E4014090020F7
S31501014750656401017DB30201958D0101118D01018F
S31501014760E904010171690201E1680201856401013E
S3150101477029AC0201C5AB0201C564010160710120C9
S3150101478061990101F56B010112090020352B00F038
S31501014790AA81362B00F09881332BC7D19C4B9847C0
S315010147A041F2B47303FB065641F2B072994930875F
S315010147B0994BB15030469847DAE6062B00F09A80BC
S315010147C0072B00F09080012BB0D1944B984741F211
S315010147D0B47303FB065641F2B072914930878E4B91
S315010147E0B15030469847C3E6192B00F0AC8100F26F
S315010147F09B818C4B984741F2B47303FB065641F2F8
S31501014800B07289493087844BB15030469847AFE63B
S315010148104C2B2DD01DD340F60102934286D1834BF9
S31501014820984741F2B47303FB065641F2B0728049CF
S315010148303087794BB1503046984799E67D4B984779
S3150101484041F2B0727C492087734BA15020469847AB
S315010148508EE67A4B984741F2B47303FB065641F251
S31501014860B072774930876C4BB150304698477FE635
S31501014870744B984741F2B07273492087664BA15038
S315010148802046984774E6714B984741F2B0727049D8
S315010148902087614BA1502046984769E66D4B9847A1
S315010148A041F2B0726C4920875B4BA1502046984773
S315010148B05EE66A4B984741F2B47303FB065641F231
S315010148C0B07267493087544BB150304698474FE62D
S315010148D0644B984741F2B072634920874E4BA15010
S315010148E02046984744E641F2B47000FB06505F4BFF
S315010148F098473DE65E4B984741F2B0725D49208784
S31501014900454BA1502046984732E65B4B984741F209
S31501014910B47303FB065641F2B072584930873E4BD8
S31501014920B1503046984723E6554B984741F2B0724C
S3150101493054492087384BA1502046984718E6524BD7
S31501014940984741F2B47303FB065641F2B0724F49DF
S315010149503087314BB1503046984709E64C4B984761
S3150101496041F2B0724B4920872B4BA1502046984703
S31501014970FEE5494B984741F2B07248492087264BDB
S31501014980A15020469847F3E5454B984741F2B47348
S3150101499003FB065641F2B072424930871E4BB150B4
S315010149A030469847E4E5404B984741F2B47303FB1F
S315010149B0065641F2B0723D493087174BB150304628
S315010149C09847D5E53A4B984741F2B0723949208764
S315010149D0114BA15020469847CAE5374B984741F2FA
S315010149E0B47303FB065641F2B072344930870A4B60
S315010149F0B15030469847BBE5314B984741F2B07209
S31501014A0030492087044BA15020469847B0E500BFA5
S31501014A1025BF0201B5BE0201E9040101259C01017F
S31501014A200D9C0101A17D0201497D020121050201C0
S31501014A3009050201E5050201CD05020131950101D3
S31501014A40D9930101219901014598010111670201DA
S31501014A50A166020101870201A1860201EDAF0201F0
S31501014A60ADAF02016DAE0201E5AD02014D080101D5
S31501014A70C99F0101999F0101EDB90101CDB801015B
S31501014A805DB6010111BC0101719501014D8901015A
S31501014A90918601011D8601019D910101A5900101E9
S31501014AA0D50E0201BD0E0201A9090201E1080201A9
S31501014AB04D0A0201350A02011D700201596F0201F7
S31501014AC0E56D0201656D0201244B984741F2B4730C
S31501014AD003FB065641F2B07221493087214BB15091
S31501014AE03046984744E5204B984741F2B0721F4939
S31501014AF020871C4BA1502046984739E51C4B984706
S31501014B0041F2B0721B492087164BA15020469847A6
S31501014B102EE5194B984741F2B07218492087114B7E
S31501014B20A1502046984723E5154B984741F2B473A6
S31501014B3003FB065641F2B07212493087094BB15057
S31501014B403046984714E5104B984741F2B0720F4928
S31501014B502087044BA1502046984709E501C302016C
S31501014B60DDC10201E9040101B9C0020181C00201ED
S31501014B7085B2020119B20201457C0201C579020120
S31501014B80AD810201D9800201C97E0201717E020154
S31501014B9084B02DE9F04F89B013AC84E80E00B94D0C
S31501014BA0B94F2E78BDF84E8000223A70EEB141F22E
S31501014BB0B4720123AA5C3B70B2B142F66873EB5C35
S31501014BC0002B00F01A8144F21C73EB5C002B00F000
S31501014BD0188145F6D0620423AA5C3B7022B109B063
S31501014BE0BDE8F04F04B070471E4684460FCC41F232
S31501014BF0B47909FB06F605EB060B0BF1080EAEE8D7
S31501014C000F000FCCAEE80F00DFF8C0A22068DAF87A
S31501014C100430009301242246CBF804C04346002107
S31501014C20CEF80000DFF8A8B2AC550820D8473B788A
S31501014C30964909FB03525068D0F804228A4200F0D2
S31501014C40EB8093498A4200F0F58041F2B47404FB8A
S31501014C5003534FF0000EA3F82CE082688D4E517874
S31501014C60DFF870C2DFF8709209029985826892783D
S31501014C70C3F830E0114399858268D27812041A6328
S31501014C808168097942EA01221A6381684979C3F87F
S31501014C9034E00A431A638168897909025963826892
S31501014CA092F807E04EEA010159638068431808301A
S31501014CB01B7A3370E0473A78DAF80430009304FB43
S31501014CC002524346918D89F8000001220A20D847F4
S31501014CD0327899F800309A4211D03B786E4A04FB3A
S31501014CE00354606890473A7841F2B47303FB02F3C7
S31501014CF00022EA5409B0BDE8F04F04B0704712AB87
S31501014D003A7853F8121FCDF80B101969DE68CDF800
S31501014D101B109DF86E005968CDF81760CDF80F107C
S31501014D209E688DF81F0008AB13E9030004FB0252CC
S31501014D30CDF81360928D594E8DE80300C2F30A0333
S31501014D40C2F3C022ADF808308DF80A2002AB0FCBB1
S31501014D50B047002859D03E7804FB0654A38D332B66
S31501014D6000F0068229D94B2B00F00C8270D940F64E
S31501014D700402934200F0AA8140F2058140F6350210
S31501014D80934200F08F8140F27A8140F649029342C3
S31501014D9040F01381424B984741F2B47303FB065627
S31501014DA040493087404841F2AC7441F2B07230510A
S31501014DB03E4BB1503046984795E7182B00F0468196
S31501014DC000F28C800D2B00F0508140F2A080162B51
S31501014DD000F0C28200F2B282152B40F0A180344B61
S31501014DE0984741F2B47303FB065641F2AC7430871E
S31501014DF041F2B0722F483049D9E702231E463B7072
S31501014E00F3E603231E463B70EFE63B782B4A04FB90
S31501014E1003546068904766E7DAF80430009300228C
S31501014E20434616201146D8473B7809FB0359D9F861
S31501014E3004000AE7DAF804300093002243461720FA
S31501014E401146D8473B7809FB0359D9F80400FCE61A
S31501014E503E2B00F069826BD9492B00F04F8100F29C
S31501014E603F81472B5CD1164B984741F2B47303FB43
S31501014E70065641F2AC74308741F2B07211481249BB
S31501014E8095E700BF4C060120290900200040004892
S31501014E9000060E4015090020656401017DB302017A
S31501014EA0958D0101118D0101A58C01012D050101CF
S31501014EB0E56D0201216D0201656D02018564010144
S31501014EC091860101E98501011D86010160710120BA
S31501014ED061990101F56B010113090020292B00F0EC
S31501014EE0EB803BD92B2B00F02181C0F011812C2BBA
S31501014EF016D1B04B984741F2B47303FB065641F202
S31501014F00AC74308741F2B072AB48AC494FE7062B1E
S31501014F1000F0F2810B2B00F0E181012B00F0F6810B
S31501014F2041F2B47303FB0656A54B70689847DAE65E
S31501014F30362B00F013813D2B00F00281352BEFD189
S31501014F40A04B984741F2B47303FB065641F2AC7488
S31501014F50308741F2B0729C489C4928E71A2B00F030
S31501014F60B381C0F019811B2BDAD1994B984741F2D4
S31501014F70B47303FB065641F2AC74308741F2B07249
S31501014F809448954913E740F60102934200F0FC81EA
S31501014F9040F60302934200F0E9814C2BC0D18F4BBD
S31501014FA0984741F2B47303FB065641F2AC7430875C
S31501014FB041F2B0728A488B49F9E640F6CA02934238
S31501014FC0AED141F2B47303FB0656DFF8EC92736876
S31501014FD0DFF8E8829C7F587FDA7F93F82130A9F8C0
S31501014FE00030240244EA0044002314437E49DFF8D9
S31501014FF0D0A27E481A4604F18274C8F80040D0470F
S31501015000B9F8004071687A4B7A48224622319847AD
S315010150102246D8F800007749774C0023A0477368E8
S31501015020DFF8A0E2754C0021A3F8C0107368B3F84C
S31501015030C020D3F8BC0002F1010CA3F8C0C0815411
S31501015040012370688EF80030A0474CE66C4B9847F7
S315010150506C4920876C4841F2AC7641F2B072A0519D
S315010150606A4BA150204698473DE6694B984741F264
S31501015070AC76208741F2B07266486749EFE740F6A0
S31501015080050293427FF44CAF644B984741F2B473E6
S3150101509003FB065641F2AC74308741F2B0726048A7
S315010150A0604984E6604B984741F2AC76208741F22C
S315010150B0B0725E485E49D2E75E4B984741F2AC76E3
S315010150C0208741F2B0725C485C49C8E75C4B98475E
S315010150D041F2AC76208741F2B0725A485A49BEE78D
S315010150E05A4B984741F2B47303FB065641F2AC742D
S315010150F0308741F2B0725648564958E6564B9847A1
S3150101510041F2AC76208741F2B07254485449A6E780
S31501015110544B984741F2B47303FB065641F2AC7402
S31501015120308741F2B0725048504940E6504B98479A
S3150101513041F2AC76208741F2B0724E484E498EE774
S315010151404E4B984741F2B47303FB065641F2AC74D8
S31501015150308741F2B0724A484A4928E64A4B984794
S3150101516041F2AC76208741F2B0724848484976E768
S31501015170484B984741F2AC76208741F2B0724648D6
S3150101518046496CE7464B984741F2AC76208741F296
S31501015190B0724448444962E7444B984741F2B473BB
S315010151A003FB065641F2AC74308741F2B0724048B6
S315010151B04049FCE585B20201A9B1020119B2020118
S315010151C0C5640101B9C0020139C0020181C00201F0
S315010151D00187020139860201A18602012199010194
S315010151E04D97010145980101FFFF070100000501E6
S315010151F03D0A03015C09002021DA02017D630101F7
S31501015200A17D0201497D0201F17C02012D05010108
S31501015210716902011D680201E16802014D0A02017B
S315010152201D0A0201350A0201D50E0201950E02017E
S31501015230BD0E020129AC02019DAB0201C5AB020102
S31501015240A909020121080201E10802019D91010159
S31501015250918F0101A5900101719501011589010145
S315010152604D8901016DAE0201A9AD0201E5AD020152
S31501015270EDAF02017DAF0201ADAF02015DB60101E4
S3150101528011B6010111BC010101C30201CDC0020127
S31501015290DDC1020125BF020171C40201B5BE0201D0
S315010152A031950101A1930101D9930101C97E020140
S315010152B0197E0201717E0201DC0900202C09002000
S315010152C035DB0201DE090020344B984741F2AC7609
S315010152D0208741F2B07232483249C0E6324B9847D3
S315010152E041F2B47303FB065641F2AC74308741F2C5
S315010152F0B0722E482E495AE52E4B984741F2AC76AB
S31501015300208741F2B0722C482C49A8E62C4B9847CC
S3150101531041F2B47303FB065641F2AC74308741F294
S31501015320B0722848284942E5284B984741F2AC76A4
S31501015330208741F2B0722648264990E6264B9847C6
S3150101534041F2B47303FB065641F2AC74308741F264
S31501015350B072224822492AE5224B984741F2AC769E
S31501015360208741F2B0722048204978E6204B9847C0
S3150101537041F2B47303FB065641F2AC74308741F234
S31501015380B0721C481C4912E51C4B984741F2AC7698
S31501015390208741F2B0721A481A4960E6AD810201CD
S315010153A0F57F0201D98002011167020171660201CD
S315010153B0A1660201C99F0101819F0101999F010115
S315010153C0259C0101C99B01010D9C0101EDB9010159
S315010153D095B80101CDB80101457C02016977020148
S315010153E0C57902011D700201416F0201596F020166
S315010153F0E5050201A5050201CD050201210502010D
S31501015400D504020109050201F0B53A4B3A4C1A6875
S315010154103A4E22F080721A601A6822F000721A60FE
S31501015420236843F08073236023684FF000754FF0C2
S3150101543080774FF080622B43236085B025614A2036
S31501015440C4F8A0502761C4F8A0702261C4F8A02055
S3150101545027632761C4F8A0702561C4F8A0502763AA
S315010154602563B04767634A20B04765634A20B04761
S3150101547000BF00BF6761C4F8A070E36BD90109D40D
S31501015480E36B9A014CBF656325634A20B047E36B21
S31501015490DB01F5D5184B174A194C1A4D4FF080709F
S315010154A04FF080615861C3F8A0001961C3F8A010DB
S315010154B0116801431160116841F0007111601A68A8
S315010154C022F080721A601A6822F000721A601320A3
S315010154D0A0470D4A0D4C0E4B0E4840F201111162C7
S315010154E0002201A9019502948DF80D20984705B076
S315010154F0F0BD00BF040E0E40000E0E40010000205B
